:1000000028C04EC04DC064C14BC04AC049C048C0A2
:1000100047C0C8C045C044C043C0F5C041C040C08F
:100020003FC03EC03DC03CC03BC03AC039C038C0F4
:1000300037C036C005A84CCDB2D44EB93836A90267
:100040000C50B9918688083CA6AAAA2ABE000000D6
:10005000803F11241FBECFEFCDBFDFE3DEBF809115
:10006000400080934000811105C098ED21E094BFCD
:10007000209341008CBB1FE3A0E0BFE3ECE9FBE071
:1000800002C005900D92A230B107D9F72FE3A2E08C
:10009000BFE301C01D92AA32B207E1F72BD170C5B0
:1000A000AFCF2FB7F8946091243F7091253F809196
:1000B000263F9091273F2FBF0895E0E4FAE0108299
:1000C00015828FEF86838093003FE091093FF09186
:1000D0000A3F8091083F319780830895CF93CFB72F
:1000E000F8941092043F1092053F1092063F109230
:1000F000073F8FEF8093003FE0DFCFBFCF910895A0
:100100008091080482FB882780F90895CF93DF93BC
:10011000282F30E0D901AA56B4478C918F3FB1F116
:10012000F901E057F447E08190E2E99FF0011124E2
:10013000FC5F61112EC086839081892399F4E901C7
:10014000C657D4479881309731F1983020F5709692
:10015000E90FF11D9FB7F894808161111FC0877F5F
:1001600080839FBF2C573447F9018081882371F029
:10017000803161F48C91803899F0853008F0880FD7
:100180009091010A809589238093010ADF91CF9194
:1001900008958583D1CFF0E0E0E0DCCF8860E0CF48
:1001A00081E0EECF8F9382E080930B0A8FB78F931D
:1001B000EF93FF93E0E2FFE39F9368948FEF0FC00C
:1001C000E8948481958188589D4F84839583885EC7
:1001D000934010F08FEF03C0848395838EEF90815E
:1001E000981B919390819F4F919390819F4F9193F2
:1001F00090819F4F919326F39F91FF91EF918F9163
:100200008FBF8F9118951F920F920FB60F921124E6
:100210002F933F934F935F936F937F938F939F930E
:10022000AF93BF93EF93FF938091023F81508093F0
:10023000023F81112BC08091033F8093023FE091E8
:10024000093FF0910A3F8091083F80838091043FED
:100250009091053FA091063FB091073F18161906EF
:100260001A061B063CF58091043F9091053FA09132
:10027000063FB091073F0197A109B1098093043F60
:100280009093053FA093063FB093073F81E0809392
:10029000460AFF91EF91BF91AF919F918F917F910E
:1002A0006F915F914F913F912F910F900FBE0F90E3
:1002B0001F9018958091043F9091053FA091063FB3
:1002C000B091073F892B8A2B8B2B01F7F6DEDECF0F
:1002D0001F920F920FB60F9211248F9384E0809398
:1002E000090481E080931F3F8F910F900FBE0F9004
:1002F0001F90189581E098ED94BF80936100E0E035
:10030000F6E092E592839DE0958390E2938380836B
:10031000809302028093030A8EEF8093260A8093D3
:10032000270A8BE08093000A82E080930A0A78947F
:1003300084E0809302048091120488608093120408
:1003400088E08093010480911304877F80931304D5
:1003500080E88093010480911704877F80931704BD
:1003600060E084E0D3DE60E081E0D0DE89E080936D
:100370001204789450E8852E56E9952E58E9A52E5A
:10038000B12C01E010E03324339444244A94542CDB
:100390003201C7E0D4E040E8242E80911F3F88233B
:1003A00059F010921F3F7DDE60931B3F70931C3FFE
:1003B00080931D3F90931E3F74DEC0901B3FD090F2
:1003C0001C3FE0901D3FF0901E3F6C197D098E0987
:1003D0009F096436710581059105F8F291DE81115E
:1003E00065C08091173F9091183FA091193FB0913F
:1003F0001A3F892B8A2B8B2B49F453DE6093173FCE
:100400007093183F8093193F90931A3F8091163F45
:1004100081111AC0F090153F44DE2091173F3091B2
:10042000183F4091193F50911A3F621B730B840B88
:10043000950B603D77408105910530F03092163F75
:1004400041E0F426F092153F8091153F882309F48E
:100450002BC127DE6B017C018091113F9091123FEF
:10046000A091133FB091143F2091013FB701A60125
:10047000481B590B6A0B7B0BDB01CA01222309F4D1
:100480000AC1803D9740A105B105D8F08091003F99
:10049000813009F423DE1092013FC092113FD092C7
:1004A000123FE092133FF092143F4CC01092173F5E
:1004B0001092183F1092193F10921A3F1092163F57
:1004C000C3CF80910D3F90910E3FA0910F3FB0910F
:1004D000103FC816D906EA06FB06A1F1C0920D3FEF
:1004E000D0920E3FE0920F3FF092103F60910B3F91
:1004F00070910C3F072E000C880B990B14D122EA47
:1005000035EF4EE85CE373D1DFD120E030E048E422
:1005100053E46DD1D0D06259704F09F043C080913F
:10052000003F813009F4DADD80910B3F90910C3F60
:100530000196883621E092070CF0A8C080930B3F0B
:1005400090930C3F61E084E0E1DD8091153F8111E3
:1005500024CFD6DD813009F01ECFA3DDC0901B3F34
:10056000D0901C3FE0901D3FF0901E3F6C197D091C
:100570008E099F09643671058105910508F40BCF3A
:1005800080915000897F846080935000809150005A
:100590008160809350008895809150008E7F809379
:1005A0005000F9CE9B0150E040E0C501B401AAD251
:1005B000DA01C901B595A79597958795009761E0F0
:1005C000A607B1058CF41092400A30E08130910505
:1005D00021E0A207B10568F0363059F0B695A7952D
:1005E000979587953F5FF2CF72E07093400A3FEF97
:1005F000EDCF0197A109B109009741E0A407B1052A
:1006000020F08FEF9FEFA0E0B0E02091003F21307D
:10061000B1F02091003F2F3F41F0E091093FF09170
:100620000A3F2091083F319720832092083FC093D2
:10063000093FD0930A3F2092060420920104409281
:10064000043F5092053F6092063F7092073FB80109
:1006500002C0660F771F3A95E2F76093033F6093FD
:10066000023F80934C0A90934D0A1092410A1092D7
:100670004A0A10924B0A3092003F71E07093450A8B
:100680008091400A81608093400A4ECF10920B3FC8
:1006900010920C3F57CF843F9140A105B10508F45B
:1006A00051CF3092013FF9CE8091003F813009F463
:1006B00015DD60E048CF0E9462036894B1110C948C
:1006C000F10308950E94D60388F09F5798F0B92F40
:1006D0009927B751B0F0E1F0660F771F881F991F77
:1006E0001AF0BA95C9F714C0B13091F00E94F00326
:1006F000B1E008950C94F003672F782F8827B85F36
:1007000039F0B93FCCF3869577956795B395D9F7CE
:100710003EF490958095709561957F4F8F4F9F4FD8
:100720000895E89409C097FB3EF4909580957095E4
:1007300061957F4F8F4F9F4F9923A9F0F92F96E92D
:10074000BB279395F695879577956795B795F111A2
:10075000F8CFFAF4BB0F11F460FF1BC06F5F7F4F3F
:100760008F4F9F4F16C0882311F096E911C0772351
:1007700021F09EE8872F762F05C0662371F096E85A
:10078000862F70E060E02AF09A95660F771F881F29
:10079000DAF7880F9695879597F9089557FD905841
:1007A000440F551F59F05F3F71F04795880F97FB35
:1007B000991F61F09F3F79F08795089512161306EF
:1007C0001406551FF2CF4695F1DF08C0161617061E
:1007D0001806991FF1CF8695710561050894089553
:1007E000E894BB2766277727CB0197F908950E94E5
:1007F0000A040C94AE040E94750438F00E947C0434
:1008000020F0952311F00C946C040C9472041124C4
:100810000C94F1030E94CE0370F3959FC1F3950FE2
:1008200050E0551F629FF001729FBB27F00DB11D74
:10083000639FAA27F00DB11DAA1F649F6627B00D04
:10084000A11D661F829F2227B00DA11D621F739FED
:10085000B00DA11D621F839FA00D611D221F749FFB
:100860003327A00D611D231F849F600D211D822F42
:10087000762F6A2F11249F5750409AF0F1F0882369
:100880004AF0EE0FFF1FBB1F661F771F881F915096
:100890005040A9F79E3F510580F00C946C040C94D5
:1008A000F1035F3FE4F3983ED4F38695779567951F
:1008B000B795F795E7959F5FC1F7FE2B880F911DC0
:1008C0009695879597F908959F930E9485040F90B8
:1008D00007FCEE5F0C94BF0497F99F6780E870E017
:1008E00060E008959FEF80EC089500240A941616A6
:1008F000170618060906089500240A94121613060E
:100900001406050608950C9472040E94D603D8F3C9
:10091000E894E0E0BB279F57F0F02AED3FE049EC78
:1009200006C0EE0FBB0F661F771F881F28F0B23A74
:1009300062077307840728F0B25A620B730B840BAB
:10094000E3959A9572F7803830F49A95BB0F661F3D
:10095000771F881FD2F790480C943B05092E03940B
:10096000000C11F4882352F0BB0F40F4BF2B11F49C
:1009700060FF04C06F5F7F4F8F4F9F4F0895EF93CD
:10098000E0FF07C0A2EA2AED3FE049EC5FEB0E94DE
:10099000E4040E94AE040F90039401FC9058E4E339
:1009A000F0E00C9447050E94750438F00E947C0426
:1009B00020F039F49F3F19F426F40C9472040EF4DD
:1009C000E095E7FB0C946C04E92F0E94CE0358F3EA
:1009D000BA17620773078407950720F079F4A6F524
:1009E0000C94F0030EF4E0950B2EBA2FA02D0B0102
:1009F000B90190010C01CA01A0011124FF27591B64
:100A000099F0593F50F4503E68F11A16F040A22F69
:100A1000232F342F4427585FF3CF469537952795DA
:100A2000A795F0405395C9F77EF41F16BA0B620BD9
:100A3000730B840BBAF09150A1F0FF0FBB1F661F20
:100A4000771F881FC2F70EC0BA0F621F731F841F63
:100A500048F4879577956795B795F7959E3F08F089
:100A6000B0CF9395880F08F09927EE0F979587954B
:100A700008959F3F31F0915020F4879577956795C1
:100A8000B795880F911D9695879597F908959F932F
:100A90008F937F936F93FF93EF939B01AC010E9421
:100AA000F703EF91FF910E945B052F913F914F91CA
:100AB0005F910C94F703DF93CF931F930F93FF92F3
:100AC000EF92DF927B018C01689406C0DA2EEF0171
:100AD0000E940A04FE01E894A59125913591459163
:100AE0005591A6F3EF010E94E404FE019701A801CD
:100AF000DA9469F7DF90EF90FF900F911F91CF91FB
:100B0000DF910895052E97FB16F400940FD057FD42
:100B100005D014D007FC02D046F408C0509540958B
:100B2000309521953F4F4F4F5F4F08959095809599
:100B3000709561957F4F8F4F9F4F0895A1E21A2EB8
:100B4000AA1BBB1BFD010DC0AA1FBB1FEE1FFF1F71
:100B5000A217B307E407F50720F0A21BB30BE40BC1
:100B6000F50B661F771F881F991F1A9469F7609508
:100B70007095809590959B01AC01BD01CF010895C2
:040B8000F894FFCF17
:100B8400001010101000060701020300000000000E
:080B940000004080020408018A
:020B9C00FF0157
:00000001FF
